{
  "_format": "hh-sol-artifact-1",
  "contractName": "NFT",
  "sourceName": "contracts/nft.sol",
  "abi": [
    {
      "inputs": [],
      "stateMutability": "nonpayable",
      "type": "constructor"
    },
    {
      "anonymous": false,
      "inputs": [
        {
          "indexed": true,
          "internalType": "address",
          "name": "owner",
          "type": "address"
        },
        {
          "indexed": true,
          "internalType": "address",
          "name": "approved",
          "type": "address"
        },
        {
          "indexed": true,
          "internalType": "uint256",
          "name": "tokenId",
          "type": "uint256"
        }
      ],
      "name": "Approval",
      "type": "event"
    },
    {
      "anonymous": false,
      "inputs": [
        {
          "indexed": true,
          "internalType": "address",
          "name": "owner",
          "type": "address"
        },
        {
          "indexed": true,
          "internalType": "address",
          "name": "operator",
          "type": "address"
        },
        {
          "indexed": false,
          "internalType": "bool",
          "name": "approved",
          "type": "bool"
        }
      ],
      "name": "ApprovalForAll",
      "type": "event"
    },
    {
      "anonymous": false,
      "inputs": [
        {
          "indexed": false,
          "internalType": "uint256",
          "name": "_fromTokenId",
          "type": "uint256"
        },
        {
          "indexed": false,
          "internalType": "uint256",
          "name": "_toTokenId",
          "type": "uint256"
        }
      ],
      "name": "BatchMetadataUpdate",
      "type": "event"
    },
    {
      "anonymous": false,
      "inputs": [
        {
          "indexed": false,
          "internalType": "uint256",
          "name": "_tokenId",
          "type": "uint256"
        }
      ],
      "name": "MetadataUpdate",
      "type": "event"
    },
    {
      "anonymous": false,
      "inputs": [
        {
          "indexed": true,
          "internalType": "address",
          "name": "previousOwner",
          "type": "address"
        },
        {
          "indexed": true,
          "internalType": "address",
          "name": "newOwner",
          "type": "address"
        }
      ],
      "name": "OwnershipTransferred",
      "type": "event"
    },
    {
      "anonymous": false,
      "inputs": [
        {
          "indexed": true,
          "internalType": "address",
          "name": "from",
          "type": "address"
        },
        {
          "indexed": true,
          "internalType": "address",
          "name": "to",
          "type": "address"
        },
        {
          "indexed": true,
          "internalType": "uint256",
          "name": "tokenId",
          "type": "uint256"
        }
      ],
      "name": "Transfer",
      "type": "event"
    },
    {
      "inputs": [
        {
          "internalType": "address",
          "name": "to",
          "type": "address"
        },
        {
          "internalType": "uint256",
          "name": "tokenId",
          "type": "uint256"
        }
      ],
      "name": "approve",
      "outputs": [],
      "stateMutability": "nonpayable",
      "type": "function"
    },
    {
      "inputs": [
        {
          "internalType": "address",
          "name": "owner",
          "type": "address"
        }
      ],
      "name": "balanceOf",
      "outputs": [
        {
          "internalType": "uint256",
          "name": "",
          "type": "uint256"
        }
      ],
      "stateMutability": "view",
      "type": "function"
    },
    {
      "inputs": [
        {
          "internalType": "string",
          "name": "tokenURI",
          "type": "string"
        }
      ],
      "name": "createToken",
      "outputs": [
        {
          "internalType": "uint256",
          "name": "",
          "type": "uint256"
        }
      ],
      "stateMutability": "nonpayable",
      "type": "function"
    },
    {
      "inputs": [
        {
          "internalType": "uint256",
          "name": "tokenId",
          "type": "uint256"
        }
      ],
      "name": "getApproved",
      "outputs": [
        {
          "internalType": "address",
          "name": "",
          "type": "address"
        }
      ],
      "stateMutability": "view",
      "type": "function"
    },
    {
      "inputs": [
        {
          "internalType": "address",
          "name": "owner",
          "type": "address"
        },
        {
          "internalType": "address",
          "name": "operator",
          "type": "address"
        }
      ],
      "name": "isApprovedForAll",
      "outputs": [
        {
          "internalType": "bool",
          "name": "",
          "type": "bool"
        }
      ],
      "stateMutability": "view",
      "type": "function"
    },
    {
      "inputs": [],
      "name": "name",
      "outputs": [
        {
          "internalType": "string",
          "name": "",
          "type": "string"
        }
      ],
      "stateMutability": "view",
      "type": "function"
    },
    {
      "inputs": [],
      "name": "owner",
      "outputs": [
        {
          "internalType": "address",
          "name": "",
          "type": "address"
        }
      ],
      "stateMutability": "view",
      "type": "function"
    },
    {
      "inputs": [
        {
          "internalType": "uint256",
          "name": "tokenId",
          "type": "uint256"
        }
      ],
      "name": "ownerOf",
      "outputs": [
        {
          "internalType": "address",
          "name": "",
          "type": "address"
        }
      ],
      "stateMutability": "view",
      "type": "function"
    },
    {
      "inputs": [],
      "name": "renounceOwnership",
      "outputs": [],
      "stateMutability": "nonpayable",
      "type": "function"
    },
    {
      "inputs": [
        {
          "internalType": "address",
          "name": "from",
          "type": "address"
        },
        {
          "internalType": "address",
          "name": "to",
          "type": "address"
        },
        {
          "internalType": "uint256",
          "name": "tokenId",
          "type": "uint256"
        }
      ],
      "name": "safeTransferFrom",
      "outputs": [],
      "stateMutability": "nonpayable",
      "type": "function"
    },
    {
      "inputs": [
        {
          "internalType": "address",
          "name": "from",
          "type": "address"
        },
        {
          "internalType": "address",
          "name": "to",
          "type": "address"
        },
        {
          "internalType": "uint256",
          "name": "tokenId",
          "type": "uint256"
        },
        {
          "internalType": "bytes",
          "name": "data",
          "type": "bytes"
        }
      ],
      "name": "safeTransferFrom",
      "outputs": [],
      "stateMutability": "nonpayable",
      "type": "function"
    },
    {
      "inputs": [
        {
          "internalType": "address",
          "name": "operator",
          "type": "address"
        },
        {
          "internalType": "bool",
          "name": "approved",
          "type": "bool"
        }
      ],
      "name": "setApprovalForAll",
      "outputs": [],
      "stateMutability": "nonpayable",
      "type": "function"
    },
    {
      "inputs": [
        {
          "internalType": "bytes4",
          "name": "interfaceId",
          "type": "bytes4"
        }
      ],
      "name": "supportsInterface",
      "outputs": [
        {
          "internalType": "bool",
          "name": "",
          "type": "bool"
        }
      ],
      "stateMutability": "view",
      "type": "function"
    },
    {
      "inputs": [],
      "name": "symbol",
      "outputs": [
        {
          "internalType": "string",
          "name": "",
          "type": "string"
        }
      ],
      "stateMutability": "view",
      "type": "function"
    },
    {
      "inputs": [
        {
          "internalType": "uint256",
          "name": "tokenId",
          "type": "uint256"
        }
      ],
      "name": "tokenURI",
      "outputs": [
        {
          "internalType": "string",
          "name": "",
          "type": "string"
        }
      ],
      "stateMutability": "view",
      "type": "function"
    },
    {
      "inputs": [
        {
          "internalType": "address",
          "name": "from",
          "type": "address"
        },
        {
          "internalType": "address",
          "name": "to",
          "type": "address"
        },
        {
          "internalType": "uint256",
          "name": "tokenId",
          "type": "uint256"
        }
      ],
      "name": "transferFrom",
      "outputs": [],
      "stateMutability": "nonpayable",
      "type": "function"
    },
    {
      "inputs": [
        {
          "internalType": "address",
          "name": "newOwner",
          "type": "address"
        }
      ],
      "name": "transferOwnership",
      "outputs": [],
      "stateMutability": "nonpayable",
      "type": "function"
    }
  ],
  "bytecode": "0x60806040523480156200001157600080fd5b506040518060400160405280600981526020017f48757920546f6b656e00000000000000000000000000000000000000000000008152506040518060400160405280600381526020017f485559000000000000000000000000000000000000000000000000000000000081525081600090816200008f919062000412565b508060019081620000a1919062000412565b505050620000c4620000b8620000ca60201b60201c565b620000d260201b60201c565b620004f9565b600033905090565b6000600760009054906101000a900473ffffffffffffffffffffffffffffffffffffffff16905081600760006101000a81548173ffffffffffffffffffffffffffffffffffffffff021916908373ffffffffffffffffffffffffffffffffffffffff1602179055508173ffffffffffffffffffffffffffffffffffffffff168173ffffffffffffffffffffffffffffffffffffffff167f8be0079c531659141344cd1fd0a4f28419497f9722a3daafe3b4186f6b6457e060405160405180910390a35050565b600081519050919050565b7f4e487b7100000000000000000000000000000000000000000000000000000000600052604160045260246000fd5b7f4e487b7100000000000000000000000000000000000000000000000000000000600052602260045260246000fd5b600060028204905060018216806200021a57607f821691505b60208210810362000230576200022f620001d2565b5b50919050565b60008190508160005260206000209050919050565b60006020601f8301049050919050565b600082821b905092915050565b6000600883026200029a7fffffffffffffffffffffffffffffffffffffffffffffffffffffffffffffffff826200025b565b620002a686836200025b565b95508019841693508086168417925050509392505050565b6000819050919050565b6000819050919050565b6000620002f3620002ed620002e784620002be565b620002c8565b620002be565b9050919050565b6000819050919050565b6200030f83620002d2565b620003276200031e82620002fa565b84845462000268565b825550505050565b600090565b6200033e6200032f565b6200034b81848462000304565b505050565b5b8181101562000373576200036760008262000334565b60018101905062000351565b5050565b601f821115620003c2576200038c8162000236565b62000397846200024b565b81016020851015620003a7578190505b620003bf620003b6856200024b565b83018262000350565b50505b505050565b600082821c905092915050565b6000620003e760001984600802620003c7565b1980831691505092915050565b6000620004028383620003d4565b9150826002028217905092915050565b6200041d8262000198565b67ffffffffffffffff811115620004395762000438620001a3565b5b62000445825462000201565b6200045282828562000377565b600060209050601f8311600181146200048a576000841562000475578287015190505b620004818582620003f4565b865550620004f1565b601f1984166200049a8662000236565b60005b82811015620004c4578489015182556001820191506020850194506020810190506200049d565b86831015620004e45784890151620004e0601f891682620003d4565b8355505b6001600288020188555050505b505050505050565b612e3480620005096000396000f3fe608060405234801561001057600080fd5b506004361061010b5760003560e01c806370a08231116100a2578063a22cb46511610071578063a22cb465146102b8578063b88d4fde146102d4578063c87b56dd146102f0578063e985e9c514610320578063f2fde38b146103505761010b565b806370a0823114610242578063715018a6146102725780638da5cb5b1461027c57806395d89b411461029a5761010b565b806323b872dd116100de57806323b872dd146101aa57806342842e0e146101c657806345576f94146101e25780636352211e146102125761010b565b806301ffc9a71461011057806306fdde0314610140578063081812fc1461015e578063095ea7b31461018e575b600080fd5b61012a60048036038101906101259190611c38565b61036c565b6040516101379190611c80565b60405180910390f35b6101486103cd565b6040516101559190611d2b565b60405180910390f35b61017860048036038101906101739190611d83565b61045f565b6040516101859190611df1565b60405180910390f35b6101a860048036038101906101a39190611e38565b6104a5565b005b6101c460048036038101906101bf9190611e78565b6105bc565b005b6101e060048036038101906101db9190611e78565b61061c565b005b6101fc60048036038101906101f79190612000565b61063c565b6040516102099190612058565b60405180910390f35b61022c60048036038101906102279190611d83565b610673565b6040516102399190611df1565b60405180910390f35b61025c60048036038101906102579190612073565b6106f9565b6040516102699190612058565b60405180910390f35b61027a6107b0565b005b6102846107c4565b6040516102919190611df1565b60405180910390f35b6102a26107ee565b6040516102af9190611d2b565b60405180910390f35b6102d260048036038101906102cd91906120cc565b610880565b005b6102ee60048036038101906102e991906121ad565b610896565b005b61030a60048036038101906103059190611d83565b6108f8565b6040516103179190611d2b565b60405180910390f35b61033a60048036038101906103359190612230565b610a0a565b6040516103479190611c80565b60405180910390f35b61036a60048036038101906103659190612073565b610a9e565b005b6000634906490660e01b7bffffffffffffffffffffffffffffffffffffffffffffffffffffffff1916827bffffffffffffffffffffffffffffffffffffffffffffffffffffffff191614806103c657506103c582610b21565b5b9050919050565b6060600080546103dc9061229f565b80601f01602080910402602001604051908101604052809291908181526020018280546104089061229f565b80156104555780601f1061042a57610100808354040283529160200191610455565b820191906000526020600020905b81548152906001019060200180831161043857829003601f168201915b5050505050905090565b600061046a82610c03565b6004600083815260200190815260200160002060009054906101000a900473ffffffffffffffffffffffffffffffffffffffff169050919050565b60006104b082610673565b90508073ffffffffffffffffffffffffffffffffffffffff168373ffffffffffffffffffffffffffffffffffffffff1603610520576040517f08c379a000000000000000000000000000000000000000000000000000000000815260040161051790612342565b60405180910390fd5b8073ffffffffffffffffffffffffffffffffffffffff1661053f610c4e565b73ffffffffffffffffffffffffffffffffffffffff16148061056e575061056d81610568610c4e565b610a0a565b5b6105ad576040517f08c379a00000000000000000000000000000000000000000000000000000000081526004016105a4906123d4565b60405180910390fd5b6105b78383610c56565b505050565b6105cd6105c7610c4e565b82610d0f565b61060c576040517f08c379a000000000000000000000000000000000000000000000000000000000815260040161060390612466565b60405180910390fd5b610617838383610da4565b505050565b61063783838360405180602001604052806000815250610896565b505050565b6000610648600861109d565b600061065460086110b3565b905061066033826110c1565b61066a81846112de565b80915050919050565b60008061067f83611382565b9050600073ffffffffffffffffffffffffffffffffffffffff168173ffffffffffffffffffffffffffffffffffffffff16036106f0576040517f08c379a00000000000000000000000000000000000000000000000000000000081526004016106e7906124d2565b60405180910390fd5b80915050919050565b60008073ffffffffffffffffffffffffffffffffffffffff168273ffffffffffffffffffffffffffffffffffffffff1603610769576040517f08c379a000000000000000000000000000000000000000000000000000000000815260040161076090612564565b60405180910390fd5b600360008373ffffffffffffffffffffffffffffffffffffffff1673ffffffffffffffffffffffffffffffffffffffff168152602001908152602001600020549050919050565b6107b86113bf565b6107c2600061143d565b565b6000600760009054906101000a900473ffffffffffffffffffffffffffffffffffffffff16905090565b6060600180546107fd9061229f565b80601f01602080910402602001604051908101604052809291908181526020018280546108299061229f565b80156108765780601f1061084b57610100808354040283529160200191610876565b820191906000526020600020905b81548152906001019060200180831161085957829003601f168201915b5050505050905090565b61089261088b610c4e565b8383611503565b5050565b6108a76108a1610c4e565b83610d0f565b6108e6576040517f08c379a00000000000000000000000000000000000000000000000000000000081526004016108dd90612466565b60405180910390fd5b6108f28484848461166f565b50505050565b606061090382610c03565b60006006600084815260200190815260200160002080546109239061229f565b80601f016020809104026020016040519081016040528092919081815260200182805461094f9061229f565b801561099c5780601f106109715761010080835404028352916020019161099c565b820191906000526020600020905b81548152906001019060200180831161097f57829003601f168201915b5050505050905060006109ad6116cb565b905060008151036109c2578192505050610a05565b6000825111156109f75780826040516020016109df9291906125c0565b60405160208183030381529060405292505050610a05565b610a00846116e2565b925050505b919050565b6000600560008473ffffffffffffffffffffffffffffffffffffffff1673ffffffffffffffffffffffffffffffffffffffff16815260200190815260200160002060008373ffffffffffffffffffffffffffffffffffffffff1673ffffffffffffffffffffffffffffffffffffffff16815260200190815260200160002060009054906101000a900460ff16905092915050565b610aa66113bf565b600073ffffffffffffffffffffffffffffffffffffffff168173ffffffffffffffffffffffffffffffffffffffff1603610b15576040517f08c379a0000000000000000000000000000000000000000000000000000000008152600401610b0c90612656565b60405180910390fd5b610b1e8161143d565b50565b60007f80ac58cd000000000000000000000000000000000000000000000000000000007bffffffffffffffffffffffffffffffffffffffffffffffffffffffff1916827bffffffffffffffffffffffffffffffffffffffffffffffffffffffff19161480610bec57507f5b5e139f000000000000000000000000000000000000000000000000000000007bffffffffffffffffffffffffffffffffffffffffffffffffffffffff1916827bffffffffffffffffffffffffffffffffffffffffffffffffffffffff1916145b80610bfc5750610bfb8261174a565b5b9050919050565b610c0c816117b4565b610c4b576040517f08c379a0000000000000000000000000000000000000000000000000000000008152600401610c42906124d2565b60405180910390fd5b50565b600033905090565b816004600083815260200190815260200160002060006101000a81548173ffffffffffffffffffffffffffffffffffffffff021916908373ffffffffffffffffffffffffffffffffffffffff160217905550808273ffffffffffffffffffffffffffffffffffffffff16610cc983610673565b73ffffffffffffffffffffffffffffffffffffffff167f8c5be1e5ebec7d5bd14f71427d1e84f3dd0314c0f7b2291e5b200ac8c7c3b92560405160405180910390a45050565b600080610d1b83610673565b90508073ffffffffffffffffffffffffffffffffffffffff168473ffffffffffffffffffffffffffffffffffffffff161480610d5d5750610d5c8185610a0a565b5b80610d9b57508373ffffffffffffffffffffffffffffffffffffffff16610d838461045f565b73ffffffffffffffffffffffffffffffffffffffff16145b91505092915050565b8273ffffffffffffffffffffffffffffffffffffffff16610dc482610673565b73ffffffffffffffffffffffffffffffffffffffff1614610e1a576040517f08c379a0000000000000000000000000000000000000000000000000000000008152600401610e11906126e8565b60405180910390fd5b600073ffffffffffffffffffffffffffffffffffffffff168273ffffffffffffffffffffffffffffffffffffffff1603610e89576040517f08c379a0000000000000000000000000000000000000000000000000000000008152600401610e809061277a565b60405180910390fd5b610e9683838360016117f5565b8273ffffffffffffffffffffffffffffffffffffffff16610eb682610673565b73ffffffffffffffffffffffffffffffffffffffff1614610f0c576040517f08c379a0000000000000000000000000000000000000000000000000000000008152600401610f03906126e8565b60405180910390fd5b6004600082815260200190815260200160002060006101000a81549073ffffffffffffffffffffffffffffffffffffffff02191690556001600360008573ffffffffffffffffffffffffffffffffffffffff1673ffffffffffffffffffffffffffffffffffffffff168152602001908152602001600020600082825403925050819055506001600360008473ffffffffffffffffffffffffffffffffffffffff1673ffffffffffffffffffffffffffffffffffffffff16815260200190815260200160002060008282540192505081905550816002600083815260200190815260200160002060006101000a81548173ffffffffffffffffffffffffffffffffffffffff021916908373ffffffffffffffffffffffffffffffffffffffff160217905550808273ffffffffffffffffffffffffffffffffffffffff168473ffffffffffffffffffffffffffffffffffffffff167fddf252ad1be2c89b69c2b068fc378daa952ba7f163c4a11628f55a4df523b3ef60405160405180910390a461109883838360016117fb565b505050565b6001816000016000828254019250508190555050565b600081600001549050919050565b600073ffffffffffffffffffffffffffffffffffffffff168273ffffffffffffffffffffffffffffffffffffffff1603611130576040517f08c379a0000000000000000000000000000000000000000000000000000000008152600401611127906127e6565b60405180910390fd5b611139816117b4565b15611179576040517f08c379a000000000000000000000000000000000000000000000000000000000815260040161117090612852565b60405180910390fd5b6111876000838360016117f5565b611190816117b4565b156111d0576040517f08c379a00000000000000000000000000000000000000000000000000000000081526004016111c790612852565b60405180910390fd5b6001600360008473ffffffffffffffffffffffffffffffffffffffff1673ffffffffffffffffffffffffffffffffffffffff16815260200190815260200160002060008282540192505081905550816002600083815260200190815260200160002060006101000a81548173ffffffffffffffffffffffffffffffffffffffff021916908373ffffffffffffffffffffffffffffffffffffffff160217905550808273ffffffffffffffffffffffffffffffffffffffff16600073ffffffffffffffffffffffffffffffffffffffff167fddf252ad1be2c89b69c2b068fc378daa952ba7f163c4a11628f55a4df523b3ef60405160405180910390a46112da6000838360016117fb565b5050565b6112e7826117b4565b611326576040517f08c379a000000000000000000000000000000000000000000000000000000000815260040161131d906128e4565b60405180910390fd5b806006600084815260200190815260200160002090816113469190612ab0565b507ff8e1a15aba9398e019f0b49df1a4fde98ee17ae345cb5f6b5e2c27f5033e8ce7826040516113769190612058565b60405180910390a15050565b60006002600083815260200190815260200160002060009054906101000a900473ffffffffffffffffffffffffffffffffffffffff169050919050565b6113c7610c4e565b73ffffffffffffffffffffffffffffffffffffffff166113e56107c4565b73ffffffffffffffffffffffffffffffffffffffff161461143b576040517f08c379a000000000000000000000000000000000000000000000000000000000815260040161143290612bce565b60405180910390fd5b565b6000600760009054906101000a900473ffffffffffffffffffffffffffffffffffffffff16905081600760006101000a81548173ffffffffffffffffffffffffffffffffffffffff021916908373ffffffffffffffffffffffffffffffffffffffff1602179055508173ffffffffffffffffffffffffffffffffffffffff168173ffffffffffffffffffffffffffffffffffffffff167f8be0079c531659141344cd1fd0a4f28419497f9722a3daafe3b4186f6b6457e060405160405180910390a35050565b8173ffffffffffffffffffffffffffffffffffffffff168373ffffffffffffffffffffffffffffffffffffffff1603611571576040517f08c379a000000000000000000000000000000000000000000000000000000000815260040161156890612c3a565b60405180910390fd5b80600560008573ffffffffffffffffffffffffffffffffffffffff1673ffffffffffffffffffffffffffffffffffffffff16815260200190815260200160002060008473ffffffffffffffffffffffffffffffffffffffff1673ffffffffffffffffffffffffffffffffffffffff16815260200190815260200160002060006101000a81548160ff0219169083151502179055508173ffffffffffffffffffffffffffffffffffffffff168373ffffffffffffffffffffffffffffffffffffffff167f17307eab39ab6107e8899845ad3d59bd9653f200f220920489ca2b5937696c31836040516116629190611c80565b60405180910390a3505050565b61167a848484610da4565b61168684848484611801565b6116c5576040517f08c379a00000000000000000000000000000000000000000000000000000000081526004016116bc90612ccc565b60405180910390fd5b50505050565b606060405180602001604052806000815250905090565b60606116ed82610c03565b60006116f76116cb565b905060008151116117175760405180602001604052806000815250611742565b8061172184611988565b6040516020016117329291906125c0565b6040516020818303038152906040525b915050919050565b60007f01ffc9a7000000000000000000000000000000000000000000000000000000007bffffffffffffffffffffffffffffffffffffffffffffffffffffffff1916827bffffffffffffffffffffffffffffffffffffffffffffffffffffffff1916149050919050565b60008073ffffffffffffffffffffffffffffffffffffffff166117d683611382565b73ffffffffffffffffffffffffffffffffffffffff1614159050919050565b50505050565b50505050565b60006118228473ffffffffffffffffffffffffffffffffffffffff16611a56565b1561197b578373ffffffffffffffffffffffffffffffffffffffff1663150b7a0261184b610c4e565b8786866040518563ffffffff1660e01b815260040161186d9493929190612d41565b6020604051808303816000875af19250505080156118a957506040513d601f19601f820116820180604052508101906118a69190612da2565b60015b61192b573d80600081146118d9576040519150601f19603f3d011682016040523d82523d6000602084013e6118de565b606091505b506000815103611923576040517f08c379a000000000000000000000000000000000000000000000000000000000815260040161191a90612ccc565b60405180910390fd5b805181602001fd5b63150b7a0260e01b7bffffffffffffffffffffffffffffffffffffffffffffffffffffffff1916817bffffffffffffffffffffffffffffffffffffffffffffffffffffffff191614915050611980565b600190505b949350505050565b60606000600161199784611a79565b01905060008167ffffffffffffffff8111156119b6576119b5611ed5565b5b6040519080825280601f01601f1916602001820160405280156119e85781602001600182028036833780820191505090505b509050600082602001820190505b600115611a4b578080600190039150507f3031323334353637383961626364656600000000000000000000000000000000600a86061a8153600a8581611a3f57611a3e612dcf565b5b049450600085036119f6575b819350505050919050565b6000808273ffffffffffffffffffffffffffffffffffffffff163b119050919050565b600080600090507a184f03e93ff9f4daa797ed6e38ed64bf6a1f0100000000000000008310611ad7577a184f03e93ff9f4daa797ed6e38ed64bf6a1f0100000000000000008381611acd57611acc612dcf565b5b0492506040810190505b6d04ee2d6d415b85acef81000000008310611b14576d04ee2d6d415b85acef81000000008381611b0a57611b09612dcf565b5b0492506020810190505b662386f26fc100008310611b4357662386f26fc100008381611b3957611b38612dcf565b5b0492506010810190505b6305f5e1008310611b6c576305f5e1008381611b6257611b61612dcf565b5b0492506008810190505b6127108310611b91576127108381611b8757611b86612dcf565b5b0492506004810190505b60648310611bb45760648381611baa57611ba9612dcf565b5b0492506002810190505b600a8310611bc3576001810190505b80915050919050565b6000604051905090565b600080fd5b600080fd5b60007fffffffff0000000000000000000000000000000000000000000000000000000082169050919050565b611c1581611be0565b8114611c2057600080fd5b50565b600081359050611c3281611c0c565b92915050565b600060208284031215611c4e57611c4d611bd6565b5b6000611c5c84828501611c23565b91505092915050565b60008115159050919050565b611c7a81611c65565b82525050565b6000602082019050611c956000830184611c71565b92915050565b600081519050919050565b600082825260208201905092915050565b60005b83811015611cd5578082015181840152602081019050611cba565b60008484015250505050565b6000601f19601f8301169050919050565b6000611cfd82611c9b565b611d078185611ca6565b9350611d17818560208601611cb7565b611d2081611ce1565b840191505092915050565b60006020820190508181036000830152611d458184611cf2565b905092915050565b6000819050919050565b611d6081611d4d565b8114611d6b57600080fd5b50565b600081359050611d7d81611d57565b92915050565b600060208284031215611d9957611d98611bd6565b5b6000611da784828501611d6e565b91505092915050565b600073ffffffffffffffffffffffffffffffffffffffff82169050919050565b6000611ddb82611db0565b9050919050565b611deb81611dd0565b82525050565b6000602082019050611e066000830184611de2565b92915050565b611e1581611dd0565b8114611e2057600080fd5b50565b600081359050611e3281611e0c565b92915050565b60008060408385031215611e4f57611e4e611bd6565b5b6000611e5d85828601611e23565b9250506020611e6e85828601611d6e565b9150509250929050565b600080600060608486031215611e9157611e90611bd6565b5b6000611e9f86828701611e23565b9350506020611eb086828701611e23565b9250506040611ec186828701611d6e565b9150509250925092565b600080fd5b600080fd5b7f4e487b7100000000000000000000000000000000000000000000000000000000600052604160045260246000fd5b611f0d82611ce1565b810181811067ffffffffffffffff82111715611f2c57611f2b611ed5565b5b80604052505050565b6000611f3f611bcc565b9050611f4b8282611f04565b919050565b600067ffffffffffffffff821115611f6b57611f6a611ed5565b5b611f7482611ce1565b9050602081019050919050565b82818337600083830152505050565b6000611fa3611f9e84611f50565b611f35565b905082815260208101848484011115611fbf57611fbe611ed0565b5b611fca848285611f81565b509392505050565b600082601f830112611fe757611fe6611ecb565b5b8135611ff7848260208601611f90565b91505092915050565b60006020828403121561201657612015611bd6565b5b600082013567ffffffffffffffff81111561203457612033611bdb565b5b61204084828501611fd2565b91505092915050565b61205281611d4d565b82525050565b600060208201905061206d6000830184612049565b92915050565b60006020828403121561208957612088611bd6565b5b600061209784828501611e23565b91505092915050565b6120a981611c65565b81146120b457600080fd5b50565b6000813590506120c6816120a0565b92915050565b600080604083850312156120e3576120e2611bd6565b5b60006120f185828601611e23565b9250506020612102858286016120b7565b9150509250929050565b600067ffffffffffffffff82111561212757612126611ed5565b5b61213082611ce1565b9050602081019050919050565b600061215061214b8461210c565b611f35565b90508281526020810184848401111561216c5761216b611ed0565b5b612177848285611f81565b509392505050565b600082601f83011261219457612193611ecb565b5b81356121a484826020860161213d565b91505092915050565b600080600080608085870312156121c7576121c6611bd6565b5b60006121d587828801611e23565b94505060206121e687828801611e23565b93505060406121f787828801611d6e565b925050606085013567ffffffffffffffff81111561221857612217611bdb565b5b6122248782880161217f565b91505092959194509250565b6000806040838503121561224757612246611bd6565b5b600061225585828601611e23565b925050602061226685828601611e23565b9150509250929050565b7f4e487b7100000000000000000000000000000000000000000000000000000000600052602260045260246000fd5b600060028204905060018216806122b757607f821691505b6020821081036122ca576122c9612270565b5b50919050565b7f4552433732313a20617070726f76616c20746f2063757272656e74206f776e6560008201527f7200000000000000000000000000000000000000000000000000000000000000602082015250565b600061232c602183611ca6565b9150612337826122d0565b604082019050919050565b6000602082019050818103600083015261235b8161231f565b9050919050565b7f4552433732313a20617070726f76652063616c6c6572206973206e6f7420746f60008201527f6b656e206f776e6572206f7220617070726f76656420666f7220616c6c000000602082015250565b60006123be603d83611ca6565b91506123c982612362565b604082019050919050565b600060208201905081810360008301526123ed816123b1565b9050919050565b7f4552433732313a2063616c6c6572206973206e6f7420746f6b656e206f776e6560008201527f72206f7220617070726f76656400000000000000000000000000000000000000602082015250565b6000612450602d83611ca6565b915061245b826123f4565b604082019050919050565b6000602082019050818103600083015261247f81612443565b9050919050565b7f4552433732313a20696e76616c696420746f6b656e2049440000000000000000600082015250565b60006124bc601883611ca6565b91506124c782612486565b602082019050919050565b600060208201905081810360008301526124eb816124af565b9050919050565b7f4552433732313a2061646472657373207a65726f206973206e6f74206120766160008201527f6c6964206f776e65720000000000000000000000000000000000000000000000602082015250565b600061254e602983611ca6565b9150612559826124f2565b604082019050919050565b6000602082019050818103600083015261257d81612541565b9050919050565b600081905092915050565b600061259a82611c9b565b6125a48185612584565b93506125b4818560208601611cb7565b80840191505092915050565b60006125cc828561258f565b91506125d8828461258f565b91508190509392505050565b7f4f776e61626c653a206e6577206f776e657220697320746865207a65726f206160008201527f6464726573730000000000000000000000000000000000000000000000000000602082015250565b6000612640602683611ca6565b915061264b826125e4565b604082019050919050565b6000602082019050818103600083015261266f81612633565b9050919050565b7f4552433732313a207472616e736665722066726f6d20696e636f72726563742060008201527f6f776e6572000000000000000000000000000000000000000000000000000000602082015250565b60006126d2602583611ca6565b91506126dd82612676565b604082019050919050565b60006020820190508181036000830152612701816126c5565b9050919050565b7f4552433732313a207472616e7366657220746f20746865207a65726f2061646460008201527f7265737300000000000000000000000000000000000000000000000000000000602082015250565b6000612764602483611ca6565b915061276f82612708565b604082019050919050565b6000602082019050818103600083015261279381612757565b9050919050565b7f4552433732313a206d696e7420746f20746865207a65726f2061646472657373600082015250565b60006127d0602083611ca6565b91506127db8261279a565b602082019050919050565b600060208201905081810360008301526127ff816127c3565b9050919050565b7f4552433732313a20746f6b656e20616c7265616479206d696e74656400000000600082015250565b600061283c601c83611ca6565b915061284782612806565b602082019050919050565b6000602082019050818103600083015261286b8161282f565b9050919050565b7f45524337323155524953746f726167653a2055524920736574206f66206e6f6e60008201527f6578697374656e7420746f6b656e000000000000000000000000000000000000602082015250565b60006128ce602e83611ca6565b91506128d982612872565b604082019050919050565b600060208201905081810360008301526128fd816128c1565b9050919050565b60008190508160005260206000209050919050565b60006020601f8301049050919050565b600082821b905092915050565b6000600883026129667fffffffffffffffffffffffffffffffffffffffffffffffffffffffffffffffff82612929565b6129708683612929565b95508019841693508086168417925050509392505050565b6000819050919050565b60006129ad6129a86129a384611d4d565b612988565b611d4d565b9050919050565b6000819050919050565b6129c783612992565b6129db6129d3826129b4565b848454612936565b825550505050565b600090565b6129f06129e3565b6129fb8184846129be565b505050565b5b81811015612a1f57612a146000826129e8565b600181019050612a01565b5050565b601f821115612a6457612a3581612904565b612a3e84612919565b81016020851015612a4d578190505b612a61612a5985612919565b830182612a00565b50505b505050565b600082821c905092915050565b6000612a8760001984600802612a69565b1980831691505092915050565b6000612aa08383612a76565b9150826002028217905092915050565b612ab982611c9b565b67ffffffffffffffff811115612ad257612ad1611ed5565b5b612adc825461229f565b612ae7828285612a23565b600060209050601f831160018114612b1a5760008415612b08578287015190505b612b128582612a94565b865550612b7a565b601f198416612b2886612904565b60005b82811015612b5057848901518255600182019150602085019450602081019050612b2b565b86831015612b6d5784890151612b69601f891682612a76565b8355505b6001600288020188555050505b505050505050565b7f4f776e61626c653a2063616c6c6572206973206e6f7420746865206f776e6572600082015250565b6000612bb8602083611ca6565b9150612bc382612b82565b602082019050919050565b60006020820190508181036000830152612be781612bab565b9050919050565b7f4552433732313a20617070726f766520746f2063616c6c657200000000000000600082015250565b6000612c24601983611ca6565b9150612c2f82612bee565b602082019050919050565b60006020820190508181036000830152612c5381612c17565b9050919050565b7f4552433732313a207472616e7366657220746f206e6f6e20455243373231526560008201527f63656976657220696d706c656d656e7465720000000000000000000000000000602082015250565b6000612cb6603283611ca6565b9150612cc182612c5a565b604082019050919050565b60006020820190508181036000830152612ce581612ca9565b9050919050565b600081519050919050565b600082825260208201905092915050565b6000612d1382612cec565b612d1d8185612cf7565b9350612d2d818560208601611cb7565b612d3681611ce1565b840191505092915050565b6000608082019050612d566000830187611de2565b612d636020830186611de2565b612d706040830185612049565b8181036060830152612d828184612d08565b905095945050505050565b600081519050612d9c81611c0c565b92915050565b600060208284031215612db857612db7611bd6565b5b6000612dc684828501612d8d565b91505092915050565b7f4e487b7100000000000000000000000000000000000000000000000000000000600052601260045260246000fdfea264697066735822122035f2899706ae22f83064e8028adc0e51bdf8620d7a233aa43e58c3952430f3a664736f6c63430008120033",
  "linkReferences": {},
  "deployedLinkReferences": {}
}