{
  "_format": "hh-sol-artifact-1",
  "contractName": "NFTMarketplace",
  "sourceName": "contracts/marketContract.sol",
  "abi": [
    {
      "inputs": [
        {
          "internalType": "address",
          "name": "_nftAddress",
          "type": "address"
        },
        {
          "internalType": "address",
          "name": "_tokenAddress",
          "type": "address"
        }
      ],
      "stateMutability": "nonpayable",
      "type": "constructor"
    },
    {
      "anonymous": false,
      "inputs": [
        {
          "indexed": true,
          "internalType": "uint256",
          "name": "tokenId",
          "type": "uint256"
        },
        {
          "indexed": false,
          "internalType": "address",
          "name": "seller",
          "type": "address"
        },
        {
          "indexed": false,
          "internalType": "uint256",
          "name": "price",
          "type": "uint256"
        }
      ],
      "name": "NFTListedSuccess",
      "type": "event"
    },
    {
      "anonymous": false,
      "inputs": [
        {
          "indexed": true,
          "internalType": "address",
          "name": "previousOwner",
          "type": "address"
        },
        {
          "indexed": true,
          "internalType": "address",
          "name": "newOwner",
          "type": "address"
        }
      ],
      "name": "OwnershipTransferred",
      "type": "event"
    },
    {
      "inputs": [
        {
          "internalType": "uint256",
          "name": "_tokenId",
          "type": "uint256"
        }
      ],
      "name": "buyNFT",
      "outputs": [],
      "stateMutability": "payable",
      "type": "function"
    },
    {
      "inputs": [
        {
          "internalType": "uint256",
          "name": "_tokenId",
          "type": "uint256"
        }
      ],
      "name": "cancelListedNFT",
      "outputs": [],
      "stateMutability": "nonpayable",
      "type": "function"
    },
    {
      "inputs": [
        {
          "internalType": "uint256",
          "name": "_tokenId",
          "type": "uint256"
        },
        {
          "internalType": "uint256",
          "name": "_price",
          "type": "uint256"
        }
      ],
      "name": "editPrice",
      "outputs": [],
      "stateMutability": "nonpayable",
      "type": "function"
    },
    {
      "inputs": [],
      "name": "getNFTs",
      "outputs": [
        {
          "components": [
            {
              "internalType": "uint256",
              "name": "tokenId",
              "type": "uint256"
            },
            {
              "internalType": "address payable",
              "name": "seller",
              "type": "address"
            },
            {
              "internalType": "uint256",
              "name": "price",
              "type": "uint256"
            }
          ],
          "internalType": "struct NFTMarketplace.ListedNFT[]",
          "name": "",
          "type": "tuple[]"
        }
      ],
      "stateMutability": "view",
      "type": "function"
    },
    {
      "inputs": [
        {
          "internalType": "uint256",
          "name": "_tokenId",
          "type": "uint256"
        }
      ],
      "name": "getPrice",
      "outputs": [
        {
          "internalType": "uint256",
          "name": "",
          "type": "uint256"
        }
      ],
      "stateMutability": "view",
      "type": "function"
    },
    {
      "inputs": [
        {
          "internalType": "uint256",
          "name": "",
          "type": "uint256"
        }
      ],
      "name": "idToListedNFT",
      "outputs": [
        {
          "internalType": "uint256",
          "name": "tokenId",
          "type": "uint256"
        },
        {
          "internalType": "address payable",
          "name": "seller",
          "type": "address"
        },
        {
          "internalType": "uint256",
          "name": "price",
          "type": "uint256"
        }
      ],
      "stateMutability": "view",
      "type": "function"
    },
    {
      "inputs": [
        {
          "internalType": "uint256",
          "name": "_tokenId",
          "type": "uint256"
        },
        {
          "internalType": "uint256",
          "name": "_price",
          "type": "uint256"
        }
      ],
      "name": "listedNFT",
      "outputs": [],
      "stateMutability": "nonpayable",
      "type": "function"
    },
    {
      "inputs": [],
      "name": "nft",
      "outputs": [
        {
          "internalType": "contract NFT",
          "name": "",
          "type": "address"
        }
      ],
      "stateMutability": "view",
      "type": "function"
    },
    {
      "inputs": [],
      "name": "owner",
      "outputs": [
        {
          "internalType": "address",
          "name": "",
          "type": "address"
        }
      ],
      "stateMutability": "view",
      "type": "function"
    },
    {
      "inputs": [],
      "name": "platformFee",
      "outputs": [
        {
          "internalType": "uint256",
          "name": "",
          "type": "uint256"
        }
      ],
      "stateMutability": "view",
      "type": "function"
    },
    {
      "inputs": [],
      "name": "renounceOwnership",
      "outputs": [],
      "stateMutability": "nonpayable",
      "type": "function"
    },
    {
      "inputs": [
        {
          "internalType": "uint256",
          "name": "_platformFee",
          "type": "uint256"
        }
      ],
      "name": "setPlatformFee",
      "outputs": [],
      "stateMutability": "nonpayable",
      "type": "function"
    },
    {
      "inputs": [],
      "name": "token",
      "outputs": [
        {
          "internalType": "contract Token",
          "name": "",
          "type": "address"
        }
      ],
      "stateMutability": "view",
      "type": "function"
    },
    {
      "inputs": [],
      "name": "totalNFTs",
      "outputs": [
        {
          "internalType": "uint256",
          "name": "",
          "type": "uint256"
        }
      ],
      "stateMutability": "view",
      "type": "function"
    },
    {
      "inputs": [
        {
          "internalType": "address",
          "name": "newOwner",
          "type": "address"
        }
      ],
      "name": "transferOwnership",
      "outputs": [],
      "stateMutability": "nonpayable",
      "type": "function"
    }
  ],
  "bytecode": "0x60806040523480156200001157600080fd5b50604051620021343803806200213483398181016040528101906200003791906200021f565b620000576200004b620000e960201b60201c565b620000f160201b60201c565b600560028190555081600360006101000a81548173ffffffffffffffffffffffffffffffffffffffff021916908373ffffffffffffffffffffffffffffffffffffffff16021790555080600460006101000a81548173ffffffffffffffffffffffffffffffffffffffff021916908373ffffffffffffffffffffffffffffffffffffffff160217905550505062000266565b600033905090565b60008060009054906101000a900473ffffffffffffffffffffffffffffffffffffffff169050816000806101000a81548173ffffffffffffffffffffffffffffffffffffffff021916908373ffffffffffffffffffffffffffffffffffffffff1602179055508173ffffffffffffffffffffffffffffffffffffffff168173ffffffffffffffffffffffffffffffffffffffff167f8be0079c531659141344cd1fd0a4f28419497f9722a3daafe3b4186f6b6457e060405160405180910390a35050565b600080fd5b600073ffffffffffffffffffffffffffffffffffffffff82169050919050565b6000620001e782620001ba565b9050919050565b620001f981620001da565b81146200020557600080fd5b50565b6000815190506200021981620001ee565b92915050565b60008060408385031215620002395762000238620001b5565b5b6000620002498582860162000208565b92505060206200025c8582860162000208565b9150509250929050565b611ebe80620002766000396000f3fe6080604052600436106100e85760003560e01c8063715018a61161008a578063d0e7a5cb11610059578063d0e7a5cb146102b1578063e7572230146102da578063f2fde38b14610317578063fc0c546a14610340576100e8565b8063715018a6146102075780638da5cb5b1461021e578063a448951514610249578063b6e8562814610288576100e8565b806326232a2e116100c657806326232a2e1461016c57806347ccca021461019757806351ed8288146101c257806355e58ff8146101de576100e8565b80630d0e96da146100ed57806312e8e2c314610118578063227212f214610141575b600080fd5b3480156100f957600080fd5b5061010261036b565b60405161010f9190611412565b60405180910390f35b34801561012457600080fd5b5061013f600480360381019061013a919061145e565b610371565b005b34801561014d57600080fd5b5061015661039e565b60405161016391906115cc565b60405180910390f35b34801561017857600080fd5b50610181610510565b60405161018e9190611412565b60405180910390f35b3480156101a357600080fd5b506101ac610516565b6040516101b9919061164d565b60405180910390f35b6101dc60048036038101906101d7919061145e565b61053c565b005b3480156101ea57600080fd5b506102056004803603810190610200919061145e565b610908565b005b34801561021357600080fd5b5061021c610aff565b005b34801561022a57600080fd5b50610233610b13565b6040516102409190611689565b60405180910390f35b34801561025557600080fd5b50610270600480360381019061026b919061145e565b610b3c565b60405161027f939291906116b3565b60405180910390f35b34801561029457600080fd5b506102af60048036038101906102aa91906116ea565b610b86565b005b3480156102bd57600080fd5b506102d860048036038101906102d391906116ea565b610fbe565b005b3480156102e657600080fd5b5061030160048036038101906102fc919061145e565b611157565b60405161030e9190611412565b60405180910390f35b34801561032357600080fd5b5061033e60048036038101906103399190611756565b6111cf565b005b34801561034c57600080fd5b50610355611252565b60405161036291906117a4565b60405180910390f35b60015481565b610379611278565b6000811015801561038b575060648111155b61039457600080fd5b8060028190555050565b6060600060015467ffffffffffffffff8111156103be576103bd6117bf565b5b6040519080825280602002602001820160405280156103f757816020015b6103e46113c2565b8152602001906001900390816103dc5790505b5090506000805b6001548110156105075760006005600060018461041b919061181d565b815260200190815260200160002060000154146104f45760056000600183610443919061181d565b8152602001908152602001600020604051806060016040529081600082015481526020016001820160009054906101000a900473ffffffffffffffffffffffffffffffffffffffff1673ffffffffffffffffffffffffffffffffffffffff1673ffffffffffffffffffffffffffffffffffffffff1681526020016002820154815250508383815181106104d9576104d8611851565b5b60200260200101819052506001826104f1919061181d565b91505b80806104ff90611880565b9150506103fe565b50819250505090565b60025481565b600360009054906101000a900473ffffffffffffffffffffffffffffffffffffffff1681565b6000600560008381526020019081526020016000206000015403610595576040517f08c379a000000000000000000000000000000000000000000000000000000000815260040161058c90611925565b60405180910390fd5b3373ffffffffffffffffffffffffffffffffffffffff166005600083815260200190815260200160002060010160009054906101000a900473ffffffffffffffffffffffffffffffffffffffff1673ffffffffffffffffffffffffffffffffffffffff1603610639576040517f08c379a000000000000000000000000000000000000000000000000000000000815260040161063090611991565b60405180910390fd5b60006005600083815260200190815260200160002060010160009054906101000a900473ffffffffffffffffffffffffffffffffffffffff16905060006005600084815260200190815260200160002060020154905060006064600254836106a191906119b1565b6106ab9190611a22565b9050600081836106bb9190611a53565b9050600460009054906101000a900473ffffffffffffffffffffffffffffffffffffffff1673ffffffffffffffffffffffffffffffffffffffff166323b872dd3386846040518463ffffffff1660e01b815260040161071c93929190611a87565b6020604051808303816000875af115801561073b573d6000803e3d6000fd5b505050506040513d601f19601f8201168201806040525081019061075f9190611af6565b50600460009054906101000a900473ffffffffffffffffffffffffffffffffffffffff1673ffffffffffffffffffffffffffffffffffffffff166323b872dd336107a7610b13565b856040518463ffffffff1660e01b81526004016107c693929190611a87565b6020604051808303816000875af11580156107e5573d6000803e3d6000fd5b505050506040513d601f19601f820116820180604052508101906108099190611af6565b50600360009054906101000a900473ffffffffffffffffffffffffffffffffffffffff1673ffffffffffffffffffffffffffffffffffffffff166323b872dd3033886040518463ffffffff1660e01b815260040161086993929190611a87565b600060405180830381600087803b15801561088357600080fd5b505af1158015610897573d6000803e3d6000fd5b50505050600560008681526020019081526020016000206000808201600090556001820160006101000a81549073ffffffffffffffffffffffffffffffffffffffff02191690556002820160009055505060018060008282546108fa9190611a53565b925050819055505050505050565b6000600560008381526020019081526020016000206000015403610961576040517f08c379a000000000000000000000000000000000000000000000000000000000815260040161095890611925565b60405180910390fd5b3373ffffffffffffffffffffffffffffffffffffffff166005600083815260200190815260200160002060010160009054906101000a900473ffffffffffffffffffffffffffffffffffffffff1673ffffffffffffffffffffffffffffffffffffffff1614610a05576040517f08c379a00000000000000000000000000000000000000000000000000000000081526004016109fc90611b95565b60405180910390fd5b600360009054906101000a900473ffffffffffffffffffffffffffffffffffffffff1673ffffffffffffffffffffffffffffffffffffffff166323b872dd3033846040518463ffffffff1660e01b8152600401610a6493929190611a87565b600060405180830381600087803b158015610a7e57600080fd5b505af1158015610a92573d6000803e3d6000fd5b50505050600560008281526020019081526020016000206000808201600090556001820160006101000a81549073ffffffffffffffffffffffffffffffffffffffff0219169055600282016000905550506001806000828254610af59190611a53565b9250508190555050565b610b07611278565b610b1160006112f6565b565b60008060009054906101000a900473ffffffffffffffffffffffffffffffffffffffff16905090565b60056020528060005260406000206000915090508060000154908060010160009054906101000a900473ffffffffffffffffffffffffffffffffffffffff16908060020154905083565b3373ffffffffffffffffffffffffffffffffffffffff16600360009054906101000a900473ffffffffffffffffffffffffffffffffffffffff1673ffffffffffffffffffffffffffffffffffffffff16636352211e846040518263ffffffff1660e01b8152600401610bf89190611412565b602060405180830381865afa158015610c15573d6000803e3d6000fd5b505050506040513d601f19601f82011682018060405250810190610c399190611bca565b73ffffffffffffffffffffffffffffffffffffffff1614610c8f576040517f08c379a0000000000000000000000000000000000000000000000000000000008152600401610c8690611b95565b60405180910390fd5b3073ffffffffffffffffffffffffffffffffffffffff16600360009054906101000a900473ffffffffffffffffffffffffffffffffffffffff1673ffffffffffffffffffffffffffffffffffffffff1663081812fc846040518263ffffffff1660e01b8152600401610d019190611412565b602060405180830381865afa158015610d1e573d6000803e3d6000fd5b505050506040513d601f19601f82011682018060405250810190610d429190611bca565b73ffffffffffffffffffffffffffffffffffffffff1614610d98576040517f08c379a0000000000000000000000000000000000000000000000000000000008152600401610d8f90611c69565b60405180910390fd5b60008111610ddb576040517f08c379a0000000000000000000000000000000000000000000000000000000008152600401610dd290611cd5565b60405180910390fd5b6000600560008481526020019081526020016000206000015414610e34576040517f08c379a0000000000000000000000000000000000000000000000000000000008152600401610e2b90611d41565b60405180910390fd5b600360009054906101000a900473ffffffffffffffffffffffffffffffffffffffff1673ffffffffffffffffffffffffffffffffffffffff166323b872dd3330856040518463ffffffff1660e01b8152600401610e9393929190611a87565b600060405180830381600087803b158015610ead57600080fd5b505af1158015610ec1573d6000803e3d6000fd5b5050505060405180606001604052808381526020013373ffffffffffffffffffffffffffffffffffffffff16815260200182815250600560008481526020019081526020016000206000820151816000015560208201518160010160006101000a81548173ffffffffffffffffffffffffffffffffffffffff021916908373ffffffffffffffffffffffffffffffffffffffff160217905550604082015181600201559050506001806000828254610f79919061181d565b92505081905550817f11f40f2a21302695e96ea2fb5f618a930b1c7454a3033a7b1bc89d7090d722c73383604051610fb2929190611d61565b60405180910390a25050565b6000600560008481526020019081526020016000206000015403611017576040517f08c379a000000000000000000000000000000000000000000000000000000000815260040161100e90611925565b60405180910390fd5b3373ffffffffffffffffffffffffffffffffffffffff166005600084815260200190815260200160002060010160009054906101000a900473ffffffffffffffffffffffffffffffffffffffff1673ffffffffffffffffffffffffffffffffffffffff16146110bb576040517f08c379a00000000000000000000000000000000000000000000000000000000081526004016110b290611b95565b60405180910390fd5b600081116110fe576040517f08c379a00000000000000000000000000000000000000000000000000000000081526004016110f590611cd5565b60405180910390fd5b806005600084815260200190815260200160002060020181905550817f11f40f2a21302695e96ea2fb5f618a930b1c7454a3033a7b1bc89d7090d722c7338360405161114b929190611d61565b60405180910390a25050565b6000806005600084815260200190815260200160002060000154036111b1576040517f08c379a00000000000000000000000000000000000000000000000000000000081526004016111a890611925565b60405180910390fd5b60056000838152602001908152602001600020600201549050919050565b6111d7611278565b600073ffffffffffffffffffffffffffffffffffffffff168173ffffffffffffffffffffffffffffffffffffffff1603611246576040517f08c379a000000000000000000000000000000000000000000000000000000000815260040161123d90611dfc565b60405180910390fd5b61124f816112f6565b50565b600460009054906101000a900473ffffffffffffffffffffffffffffffffffffffff1681565b6112806113ba565b73ffffffffffffffffffffffffffffffffffffffff1661129e610b13565b73ffffffffffffffffffffffffffffffffffffffff16146112f4576040517f08c379a00000000000000000000000000000000000000000000000000000000081526004016112eb90611e68565b60405180910390fd5b565b60008060009054906101000a900473ffffffffffffffffffffffffffffffffffffffff169050816000806101000a81548173ffffffffffffffffffffffffffffffffffffffff021916908373ffffffffffffffffffffffffffffffffffffffff1602179055508173ffffffffffffffffffffffffffffffffffffffff168173ffffffffffffffffffffffffffffffffffffffff167f8be0079c531659141344cd1fd0a4f28419497f9722a3daafe3b4186f6b6457e060405160405180910390a35050565b600033905090565b604051806060016040528060008152602001600073ffffffffffffffffffffffffffffffffffffffff168152602001600081525090565b6000819050919050565b61140c816113f9565b82525050565b60006020820190506114276000830184611403565b92915050565b600080fd5b61143b816113f9565b811461144657600080fd5b50565b60008135905061145881611432565b92915050565b6000602082840312156114745761147361142d565b5b600061148284828501611449565b91505092915050565b600081519050919050565b600082825260208201905092915050565b6000819050602082019050919050565b6114c0816113f9565b82525050565b600073ffffffffffffffffffffffffffffffffffffffff82169050919050565b60006114f1826114c6565b9050919050565b611501816114e6565b82525050565b60608201600082015161151d60008501826114b7565b50602082015161153060208501826114f8565b50604082015161154360408501826114b7565b50505050565b60006115558383611507565b60608301905092915050565b6000602082019050919050565b60006115798261148b565b6115838185611496565b935061158e836114a7565b8060005b838110156115bf5781516115a68882611549565b97506115b183611561565b925050600181019050611592565b5085935050505092915050565b600060208201905081810360008301526115e6818461156e565b905092915050565b6000819050919050565b600061161361160e611609846114c6565b6115ee565b6114c6565b9050919050565b6000611625826115f8565b9050919050565b60006116378261161a565b9050919050565b6116478161162c565b82525050565b6000602082019050611662600083018461163e565b92915050565b6000611673826114c6565b9050919050565b61168381611668565b82525050565b600060208201905061169e600083018461167a565b92915050565b6116ad816114e6565b82525050565b60006060820190506116c86000830186611403565b6116d560208301856116a4565b6116e26040830184611403565b949350505050565b600080604083850312156117015761170061142d565b5b600061170f85828601611449565b925050602061172085828601611449565b9150509250929050565b61173381611668565b811461173e57600080fd5b50565b6000813590506117508161172a565b92915050565b60006020828403121561176c5761176b61142d565b5b600061177a84828501611741565b91505092915050565b600061178e8261161a565b9050919050565b61179e81611783565b82525050565b60006020820190506117b96000830184611795565b92915050565b7f4e487b7100000000000000000000000000000000000000000000000000000000600052604160045260246000fd5b7f4e487b7100000000000000000000000000000000000000000000000000000000600052601160045260246000fd5b6000611828826113f9565b9150611833836113f9565b925082820190508082111561184b5761184a6117ee565b5b92915050565b7f4e487b7100000000000000000000000000000000000000000000000000000000600052603260045260246000fd5b600061188b826113f9565b91507fffffffffffffffffffffffffffffffffffffffffffffffffffffffffffffffff82036118bd576118bc6117ee565b5b600182019050919050565b600082825260208201905092915050565b7f54686973204e465420686173206e6f74206265656e206c697374656420796574600082015250565b600061190f6020836118c8565b915061191a826118d9565b602082019050919050565b6000602082019050818103600083015261193e81611902565b9050919050565b7f596f752061726520746865206f776e6572206f662074686973204e4654000000600082015250565b600061197b601d836118c8565b915061198682611945565b602082019050919050565b600060208201905081810360008301526119aa8161196e565b9050919050565b60006119bc826113f9565b91506119c7836113f9565b92508282026119d5816113f9565b915082820484148315176119ec576119eb6117ee565b5b5092915050565b7f4e487b7100000000000000000000000000000000000000000000000000000000600052601260045260246000fd5b6000611a2d826113f9565b9150611a38836113f9565b925082611a4857611a476119f3565b5b828204905092915050565b6000611a5e826113f9565b9150611a69836113f9565b9250828203905081811115611a8157611a806117ee565b5b92915050565b6000606082019050611a9c600083018661167a565b611aa9602083018561167a565b611ab66040830184611403565b949350505050565b60008115159050919050565b611ad381611abe565b8114611ade57600080fd5b50565b600081519050611af081611aca565b92915050565b600060208284031215611b0c57611b0b61142d565b5b6000611b1a84828501611ae1565b91505092915050565b7f596f7520617265206e6f7420746865206f776e6572206f662074686973204e4660008201527f5400000000000000000000000000000000000000000000000000000000000000602082015250565b6000611b7f6021836118c8565b9150611b8a82611b23565b604082019050919050565b60006020820190508181036000830152611bae81611b72565b9050919050565b600081519050611bc48161172a565b92915050565b600060208284031215611be057611bdf61142d565b5b6000611bee84828501611bb5565b91505092915050565b7f596f75206d75737420617070726f7665207468697320636f6e7472616374207460008201527f6f207472616e7366657220796f7572204e465400000000000000000000000000602082015250565b6000611c536033836118c8565b9150611c5e82611bf7565b604082019050919050565b60006020820190508181036000830152611c8281611c46565b9050919050565b7f5072696365206d7573742062652067726561746572207468616e203000000000600082015250565b6000611cbf601c836118c8565b9150611cca82611c89565b602082019050919050565b60006020820190508181036000830152611cee81611cb2565b9050919050565b7f54686973204e46542068617320616c7265616479206265656e206c6973746564600082015250565b6000611d2b6020836118c8565b9150611d3682611cf5565b602082019050919050565b60006020820190508181036000830152611d5a81611d1e565b9050919050565b6000604082019050611d76600083018561167a565b611d836020830184611403565b9392505050565b7f4f776e61626c653a206e6577206f776e657220697320746865207a65726f206160008201527f6464726573730000000000000000000000000000000000000000000000000000602082015250565b6000611de66026836118c8565b9150611df182611d8a565b604082019050919050565b60006020820190508181036000830152611e1581611dd9565b9050919050565b7f4f776e61626c653a2063616c6c6572206973206e6f7420746865206f776e6572600082015250565b6000611e526020836118c8565b9150611e5d82611e1c565b602082019050919050565b60006020820190508181036000830152611e8181611e45565b905091905056fea2646970667358221220f05d4bb2f18662377ff02545ce9b1dc0873906991cf9fcea8f0ba4433398140a64736f6c63430008120033",
  "linkReferences": {},
  "deployedLinkReferences": {}
}